{
  "_format": "hh-sol-artifact-1",
  "contractName": "DAOGovernor",
  "sourceName": "contracts/DAOGovernor.sol",
  "abi": [
    {
      "inputs": [
        {
          "internalType": "address",
          "name": "tokenAddress",
          "type": "address"
        }
      ],
      "stateMutability": "nonpayable",
      "type": "constructor"
    },
    {
      "anonymous": false,
      "inputs": [
        {
          "indexed": false,
          "internalType": "uint256",
          "name": "proposalId",
          "type": "uint256"
        },
        {
          "indexed": false,
          "internalType": "address",
          "name": "proposer",
          "type": "address"
        },
        {
          "indexed": false,
          "internalType": "address[]",
          "name": "targets",
          "type": "address[]"
        },
        {
          "indexed": false,
          "internalType": "uint256[]",
          "name": "values",
          "type": "uint256[]"
        },
        {
          "indexed": false,
          "internalType": "bytes[]",
          "name": "calldatas",
          "type": "bytes[]"
        },
        {
          "indexed": false,
          "internalType": "uint256",
          "name": "startBlock",
          "type": "uint256"
        },
        {
          "indexed": false,
          "internalType": "uint256",
          "name": "endBlock",
          "type": "uint256"
        },
        {
          "indexed": false,
          "internalType": "string",
          "name": "description",
          "type": "string"
        }
      ],
      "name": "ProposalCreated",
      "type": "event"
    },
    {
      "anonymous": false,
      "inputs": [
        {
          "indexed": false,
          "internalType": "uint256",
          "name": "id",
          "type": "uint256"
        }
      ],
      "name": "ProposalExecuted",
      "type": "event"
    },
    {
      "anonymous": false,
      "inputs": [
        {
          "indexed": false,
          "internalType": "address",
          "name": "voter",
          "type": "address"
        },
        {
          "indexed": false,
          "internalType": "uint256",
          "name": "proposalId",
          "type": "uint256"
        },
        {
          "indexed": false,
          "internalType": "bool",
          "name": "support",
          "type": "bool"
        },
        {
          "indexed": false,
          "internalType": "uint256",
          "name": "votes",
          "type": "uint256"
        }
      ],
      "name": "VoteCast",
      "type": "event"
    },
    {
      "inputs": [],
      "name": "_governor",
      "outputs": [
        {
          "internalType": "address",
          "name": "",
          "type": "address"
        }
      ],
      "stateMutability": "view",
      "type": "function"
    },
    {
      "inputs": [],
      "name": "_proposalCount",
      "outputs": [
        {
          "internalType": "uint256",
          "name": "",
          "type": "uint256"
        }
      ],
      "stateMutability": "view",
      "type": "function"
    },
    {
      "inputs": [
        {
          "internalType": "uint256",
          "name": "",
          "type": "uint256"
        }
      ],
      "name": "_proposals",
      "outputs": [
        {
          "internalType": "uint256",
          "name": "id",
          "type": "uint256"
        },
        {
          "internalType": "address",
          "name": "proposer",
          "type": "address"
        },
        {
          "internalType": "string",
          "name": "description",
          "type": "string"
        },
        {
          "internalType": "uint256",
          "name": "startBlock",
          "type": "uint256"
        },
        {
          "internalType": "uint256",
          "name": "endBlock",
          "type": "uint256"
        },
        {
          "internalType": "uint256",
          "name": "forVotes",
          "type": "uint256"
        },
        {
          "internalType": "uint256",
          "name": "againstVotes",
          "type": "uint256"
        },
        {
          "internalType": "bool",
          "name": "canceled",
          "type": "bool"
        },
        {
          "internalType": "bool",
          "name": "executed",
          "type": "bool"
        }
      ],
      "stateMutability": "view",
      "type": "function"
    },
    {
      "inputs": [
        {
          "internalType": "address[]",
          "name": "targets",
          "type": "address[]"
        },
        {
          "internalType": "uint256[]",
          "name": "values",
          "type": "uint256[]"
        },
        {
          "internalType": "bytes[]",
          "name": "calldatas",
          "type": "bytes[]"
        },
        {
          "internalType": "string",
          "name": "description",
          "type": "string"
        }
      ],
      "name": "createProposal",
      "outputs": [
        {
          "internalType": "uint256",
          "name": "createdProposalId",
          "type": "uint256"
        }
      ],
      "stateMutability": "nonpayable",
      "type": "function"
    },
    {
      "inputs": [],
      "name": "daoToken",
      "outputs": [
        {
          "internalType": "contract IDaoToken",
          "name": "",
          "type": "address"
        }
      ],
      "stateMutability": "view",
      "type": "function"
    },
    {
      "inputs": [
        {
          "internalType": "uint256",
          "name": "proposalId",
          "type": "uint256"
        }
      ],
      "name": "execute",
      "outputs": [],
      "stateMutability": "payable",
      "type": "function"
    },
    {
      "inputs": [
        {
          "internalType": "uint256",
          "name": "proposalId",
          "type": "uint256"
        }
      ],
      "name": "getProposalState",
      "outputs": [
        {
          "internalType": "enum DAOGovernor.ProposalState",
          "name": "state",
          "type": "uint8"
        }
      ],
      "stateMutability": "view",
      "type": "function"
    },
    {
      "inputs": [],
      "name": "getQuorum",
      "outputs": [
        {
          "internalType": "uint256",
          "name": "",
          "type": "uint256"
        }
      ],
      "stateMutability": "view",
      "type": "function"
    },
    {
      "inputs": [],
      "name": "getVotingPeriod",
      "outputs": [
        {
          "internalType": "uint256",
          "name": "",
          "type": "uint256"
        }
      ],
      "stateMutability": "view",
      "type": "function"
    },
    {
      "inputs": [
        {
          "internalType": "uint256",
          "name": "_newValue",
          "type": "uint256"
        }
      ],
      "name": "updateQuorumNumerator",
      "outputs": [],
      "stateMutability": "nonpayable",
      "type": "function"
    },
    {
      "inputs": [
        {
          "internalType": "uint256",
          "name": "_newValue",
          "type": "uint256"
        }
      ],
      "name": "updateVotingPeriod",
      "outputs": [],
      "stateMutability": "nonpayable",
      "type": "function"
    },
    {
      "inputs": [
        {
          "internalType": "uint256",
          "name": "proposalId",
          "type": "uint256"
        },
        {
          "internalType": "bool",
          "name": "support",
          "type": "bool"
        }
      ],
      "name": "vote",
      "outputs": [
        {
          "internalType": "uint256",
          "name": "voteWeight",
          "type": "uint256"
        }
      ],
      "stateMutability": "nonpayable",
      "type": "function"
    }
  ],
  "bytecode": "0x60806040523480156200001157600080fd5b5060405162002a2438038062002a248339818101604052810190620000379190620000f9565b80600460006101000a81548173ffffffffffffffffffffffffffffffffffffffff021916908373ffffffffffffffffffffffffffffffffffffffff16021790555060056000819055506032600181905550506200012b565b600080fd5b600073ffffffffffffffffffffffffffffffffffffffff82169050919050565b6000620000c18262000094565b9050919050565b620000d381620000b4565b8114620000df57600080fd5b50565b600081519050620000f381620000c8565b92915050565b6000602082840312156200011257620001116200008f565b5b60006200012284828501620000e2565b91505092915050565b6128e9806200013b6000396000f3fe6080604052600436106100a75760003560e01c80639080936f116100645780639080936f146101d85780639526084314610215578063c26c12eb14610240578063c9d27afe1461026b578063ef00ef43146102a8578063fe0d94c1146102d1576100a7565b806306f3f9e6146100ac5780630a494840146100d5578063280e25fa1461011a5780633ecc6a43146101575780634914b030146101825780636f2904cc146101ad575b600080fd5b3480156100b857600080fd5b506100d360048036038101906100ce9190611168565b6102ed565b005b3480156100e157600080fd5b506100fc60048036038101906100f79190611168565b610423565b60405161011199989796959493929190611290565b60405180910390f35b34801561012657600080fd5b50610141600480360381019061013c9190611792565b610533565b60405161014e9190611869565b60405180910390f35b34801561016357600080fd5b5061016c6107df565b6040516101799190611869565b60405180910390f35b34801561018e57600080fd5b506101976107e8565b6040516101a491906118e3565b60405180910390f35b3480156101b957600080fd5b506101c261080e565b6040516101cf9190611869565b60405180910390f35b3480156101e457600080fd5b506101ff60048036038101906101fa9190611168565b610814565b60405161020c9190611975565b60405180910390f35b34801561022157600080fd5b5061022a6108ef565b6040516102379190611990565b60405180910390f35b34801561024c57600080fd5b506102556108f7565b6040516102629190611869565b60405180910390f35b34801561027757600080fd5b50610292600480360381019061028d91906119d7565b6109a8565b60405161029f9190611869565b60405180910390f35b3480156102b457600080fd5b506102cf60048036038101906102ca9190611168565b610bef565b005b6102eb60048036038101906102e69190611168565b610cd5565b005b3373ffffffffffffffffffffffffffffffffffffffff163073ffffffffffffffffffffffffffffffffffffffff1663952608436040518163ffffffff1660e01b8152600401602060405180830381865afa15801561034f573d6000803e3d6000fd5b505050506040513d601f19601f820116820180604052508101906103739190611a2c565b73ffffffffffffffffffffffffffffffffffffffff16146103c9576040517f08c379a00000000000000000000000000000000000000000000000000000000081526004016103c090611aa5565b60405180910390fd5b6000811180156103da575060648111155b610419576040517f08c379a000000000000000000000000000000000000000000000000000000000815260040161041090611b11565b60405180910390fd5b8060018190555050565b60026020528060005260406000206000915090508060000154908060010160009054906101000a900473ffffffffffffffffffffffffffffffffffffffff169080600501805461047290611b60565b80601f016020809104026020016040519081016040528092919081815260200182805461049e90611b60565b80156104eb5780601f106104c0576101008083540402835291602001916104eb565b820191906000526020600020905b8154815290600101906020018083116104ce57829003601f168201915b50505050509080600601549080600701549080600801549080600901549080600a0160009054906101000a900460ff169080600a0160019054906101000a900460ff16905089565b60008061053f33610ec8565b1161057f576040517f08c379a000000000000000000000000000000000000000000000000000000000815260040161057690611c03565b60405180910390fd5b83518551146105c3576040517f08c379a00000000000000000000000000000000000000000000000000000000081526004016105ba90611c6f565b60405180910390fd5b8251855114610607576040517f08c379a00000000000000000000000000000000000000000000000000000000081526004016105fe90611c6f565b60405180910390fd5b600085511161064b576040517f08c379a000000000000000000000000000000000000000000000000000000000815260040161064290611cdb565b60405180910390fd5b6003600081548092919061065e90611d2a565b9190505550600060035490506000600260008381526020019081526020016000209050600043905060008054826106959190611d72565b9050838360000181905550338360010160006101000a81548173ffffffffffffffffffffffffffffffffffffffff021916908373ffffffffffffffffffffffffffffffffffffffff160217905550888360020190805190602001906106fb929190610f6d565b5087836003019080519060200190610714929190610ff7565b508683600401908051906020019061072d929190611044565b508583600501908161073f9190611f48565b506000836008018190555060008360090181905550600083600a0160016101000a81548160ff0219169083151502179055508183600601819055508083600701819055507f95f03e437e6d5037418f12bef80fc7e0a5f27754c078a1d5d3f62d39bac44e508360000154338b8b8b87878d6040516107c49897969594939291906122ad565b60405180910390a18260000154945050505050949350505050565b60008054905090565b600460009054906101000a900473ffffffffffffffffffffffffffffffffffffffff1681565b60035481565b600081600354101580156108285750600082115b610867576040517f08c379a000000000000000000000000000000000000000000000000000000000815260040161085e90612393565b60405180910390fd5b6000600260008481526020019081526020016000209050806007015443116108935760019150506108ea565b806009015481600801541115806108b457506108ad6108f7565b8160080154105b156108c35760029150506108ea565b80600a0160019054906101000a900460ff16156108e45760049150506108ea565b60039150505b919050565b600030905090565b60006064600154600460009054906101000a900473ffffffffffffffffffffffffffffffffffffffff1673ffffffffffffffffffffffffffffffffffffffff166318160ddd6040518163ffffffff1660e01b8152600401602060405180830381865afa15801561096b573d6000803e3d6000fd5b505050506040513d601f19601f8201168201806040525081019061098f91906123c8565b61099991906123f5565b6109a39190612466565b905090565b6000803390506000600260008681526020019081526020016000209050600160048111156109d9576109d86118fe565b5b6109e286610814565b60048111156109f4576109f36118fe565b5b14610a34576040517f08c379a0000000000000000000000000000000000000000000000000000000008152600401610a2b906124e3565b60405180910390fd5b600081600b0160008473ffffffffffffffffffffffffffffffffffffffff1673ffffffffffffffffffffffffffffffffffffffff1681526020019081526020016000209050600015158160000160009054906101000a900460ff16151514610ad1576040517f08c379a0000000000000000000000000000000000000000000000000000000008152600401610ac89061254f565b60405180910390fd5b6000610adc84610ec8565b905060008111610b21576040517f08c379a0000000000000000000000000000000000000000000000000000000008152600401610b18906125bb565b60405180910390fd5b8515610b475780836008016000828254610b3b9190611d72565b92505081905550610b63565b80836009016000828254610b5b9190611d72565b925050819055505b60018260000160006101000a81548160ff021916908315150217905550858260000160016101000a81548160ff0219169083151502179055508082600101819055507f877856338e13f63d0c36822ff0ef736b80934cd90574a3a5bc9262c39d217c4684888884604051610bda94939291906125db565b60405180910390a18094505050505092915050565b3373ffffffffffffffffffffffffffffffffffffffff163073ffffffffffffffffffffffffffffffffffffffff1663952608436040518163ffffffff1660e01b8152600401602060405180830381865afa158015610c51573d6000803e3d6000fd5b505050506040513d601f19601f82011682018060405250810190610c759190611a2c565b73ffffffffffffffffffffffffffffffffffffffff1614610ccb576040517f08c379a0000000000000000000000000000000000000000000000000000000008152600401610cc290611aa5565b60405180910390fd5b8060008190555050565b600060026000838152602001908152602001600020905060036004811115610d0057610cff6118fe565b5b610d0983610814565b6004811115610d1b57610d1a6118fe565b5b14610d5b576040517f08c379a0000000000000000000000000000000000000000000000000000000008152600401610d5290612692565b60405180910390fd5b60005b8160020180549050811015610e6f57600080836002018381548110610d8657610d856126b2565b5b9060005260206000200160009054906101000a900473ffffffffffffffffffffffffffffffffffffffff1673ffffffffffffffffffffffffffffffffffffffff16846003018481548110610ddd57610ddc6126b2565b5b9060005260206000200154856004018581548110610dfe57610dfd6126b2565b5b90600052602060002001604051610e159190612784565b60006040518083038185875af1925050503d8060008114610e52576040519150601f19603f3d011682016040523d82523d6000602084013e610e57565b606091505b5091509150505080610e6890611d2a565b9050610d5e565b50600181600a0160016101000a81548160ff0219169083151502179055507f712ae1383f79ac853f8d882153778e0260ef8f03b504e2866e0593e04d2b291f82604051610ebc9190611869565b60405180910390a15050565b6000600460009054906101000a900473ffffffffffffffffffffffffffffffffffffffff1673ffffffffffffffffffffffffffffffffffffffff1663b4b5ea57836040518263ffffffff1660e01b8152600401610f259190611990565b602060405180830381865afa158015610f42573d6000803e3d6000fd5b505050506040513d601f19601f82011682018060405250810190610f6691906123c8565b9050919050565b828054828255906000526020600020908101928215610fe6579160200282015b82811115610fe55782518260006101000a81548173ffffffffffffffffffffffffffffffffffffffff021916908373ffffffffffffffffffffffffffffffffffffffff16021790555091602001919060010190610f8d565b5b509050610ff3919061109d565b5090565b828054828255906000526020600020908101928215611033579160200282015b82811115611032578251825591602001919060010190611017565b5b509050611040919061109d565b5090565b82805482825590600052602060002090810192821561108c579160200282015b8281111561108b57825182908161107b91906127e1565b5091602001919060010190611064565b5b50905061109991906110ba565b5090565b5b808211156110b657600081600090555060010161109e565b5090565b5b808211156110da57600081816110d191906110de565b506001016110bb565b5090565b5080546110ea90611b60565b6000825580601f106110fc575061111b565b601f01602090049060005260206000209081019061111a919061109d565b5b50565b6000604051905090565b600080fd5b600080fd5b6000819050919050565b61114581611132565b811461115057600080fd5b50565b6000813590506111628161113c565b92915050565b60006020828403121561117e5761117d611128565b5b600061118c84828501611153565b91505092915050565b61119e81611132565b82525050565b600073ffffffffffffffffffffffffffffffffffffffff82169050919050565b60006111cf826111a4565b9050919050565b6111df816111c4565b82525050565b600081519050919050565b600082825260208201905092915050565b60005b8381101561121f578082015181840152602081019050611204565b60008484015250505050565b6000601f19601f8301169050919050565b6000611247826111e5565b61125181856111f0565b9350611261818560208601611201565b61126a8161122b565b840191505092915050565b60008115159050919050565b61128a81611275565b82525050565b6000610120820190506112a6600083018c611195565b6112b3602083018b6111d6565b81810360408301526112c5818a61123c565b90506112d46060830189611195565b6112e16080830188611195565b6112ee60a0830187611195565b6112fb60c0830186611195565b61130860e0830185611281565b611316610100830184611281565b9a9950505050505050505050565b600080fd5b7f4e487b7100000000000000000000000000000000000000000000000000000000600052604160045260246000fd5b6113618261122b565b810181811067ffffffffffffffff821117156113805761137f611329565b5b80604052505050565b600061139361111e565b905061139f8282611358565b919050565b600067ffffffffffffffff8211156113bf576113be611329565b5b602082029050602081019050919050565b600080fd5b6113de816111c4565b81146113e957600080fd5b50565b6000813590506113fb816113d5565b92915050565b600061141461140f846113a4565b611389565b90508083825260208201905060208402830185811115611437576114366113d0565b5b835b81811015611460578061144c88826113ec565b845260208401935050602081019050611439565b5050509392505050565b600082601f83011261147f5761147e611324565b5b813561148f848260208601611401565b91505092915050565b600067ffffffffffffffff8211156114b3576114b2611329565b5b602082029050602081019050919050565b60006114d76114d284611498565b611389565b905080838252602082019050602084028301858111156114fa576114f96113d0565b5b835b81811015611523578061150f8882611153565b8452602084019350506020810190506114fc565b5050509392505050565b600082601f83011261154257611541611324565b5b81356115528482602086016114c4565b91505092915050565b600067ffffffffffffffff82111561157657611575611329565b5b602082029050602081019050919050565b600080fd5b600067ffffffffffffffff8211156115a7576115a6611329565b5b6115b08261122b565b9050602081019050919050565b82818337600083830152505050565b60006115df6115da8461158c565b611389565b9050828152602081018484840111156115fb576115fa611587565b5b6116068482856115bd565b509392505050565b600082601f83011261162357611622611324565b5b81356116338482602086016115cc565b91505092915050565b600061164f61164a8461155b565b611389565b90508083825260208201905060208402830185811115611672576116716113d0565b5b835b818110156116b957803567ffffffffffffffff81111561169757611696611324565b5b8086016116a4898261160e565b85526020850194505050602081019050611674565b5050509392505050565b600082601f8301126116d8576116d7611324565b5b81356116e884826020860161163c565b91505092915050565b600067ffffffffffffffff82111561170c5761170b611329565b5b6117158261122b565b9050602081019050919050565b6000611735611730846116f1565b611389565b90508281526020810184848401111561175157611750611587565b5b61175c8482856115bd565b509392505050565b600082601f83011261177957611778611324565b5b8135611789848260208601611722565b91505092915050565b600080600080608085870312156117ac576117ab611128565b5b600085013567ffffffffffffffff8111156117ca576117c961112d565b5b6117d68782880161146a565b945050602085013567ffffffffffffffff8111156117f7576117f661112d565b5b6118038782880161152d565b935050604085013567ffffffffffffffff8111156118245761182361112d565b5b611830878288016116c3565b925050606085013567ffffffffffffffff8111156118515761185061112d565b5b61185d87828801611764565b91505092959194509250565b600060208201905061187e6000830184611195565b92915050565b6000819050919050565b60006118a96118a461189f846111a4565b611884565b6111a4565b9050919050565b60006118bb8261188e565b9050919050565b60006118cd826118b0565b9050919050565b6118dd816118c2565b82525050565b60006020820190506118f860008301846118d4565b92915050565b7f4e487b7100000000000000000000000000000000000000000000000000000000600052602160045260246000fd5b6005811061193e5761193d6118fe565b5b50565b600081905061194f8261192d565b919050565b600061195f82611941565b9050919050565b61196f81611954565b82525050565b600060208201905061198a6000830184611966565b92915050565b60006020820190506119a560008301846111d6565b92915050565b6119b481611275565b81146119bf57600080fd5b50565b6000813590506119d1816119ab565b92915050565b600080604083850312156119ee576119ed611128565b5b60006119fc85828601611153565b9250506020611a0d858286016119c2565b9150509250929050565b600081519050611a26816113d5565b92915050565b600060208284031215611a4257611a41611128565b5b6000611a5084828501611a17565b91505092915050565b7f43616c6c6572206973206e6f74207468652044414f476f7665726e6f72000000600082015250565b6000611a8f601d836111f0565b9150611a9a82611a59565b602082019050919050565b60006020820190508181036000830152611abe81611a82565b9050919050565b7f496e76616c69642071756f72756d206e756d657261746f720000000000000000600082015250565b6000611afb6018836111f0565b9150611b0682611ac5565b602082019050919050565b60006020820190508181036000830152611b2a81611aee565b9050919050565b7f4e487b7100000000000000000000000000000000000000000000000000000000600052602260045260246000fd5b60006002820490506001821680611b7857607f821691505b602082108103611b8b57611b8a611b31565b5b50919050565b7f50726f706f736572206d757374206861766520736f6d652064616f20746f6b6560008201527f6e73000000000000000000000000000000000000000000000000000000000000602082015250565b6000611bed6022836111f0565b9150611bf882611b91565b604082019050919050565b60006020820190508181036000830152611c1c81611be0565b9050919050565b7f496e76616c69642070726f706f73616c206c656e677468000000000000000000600082015250565b6000611c596017836111f0565b9150611c6482611c23565b602082019050919050565b60006020820190508181036000830152611c8881611c4c565b9050919050565b7f50726f706f73616c20697320656d707479000000000000000000000000000000600082015250565b6000611cc56011836111f0565b9150611cd082611c8f565b602082019050919050565b60006020820190508181036000830152611cf481611cb8565b9050919050565b7f4e487b7100000000000000000000000000000000000000000000000000000000600052601160045260246000fd5b6000611d3582611132565b91507fffffffffffffffffffffffffffffffffffffffffffffffffffffffffffffffff8203611d6757611d66611cfb565b5b600182019050919050565b6000611d7d82611132565b9150611d8883611132565b9250828201905080821115611da057611d9f611cfb565b5b92915050565b60008190508160005260206000209050919050565b60006020601f8301049050919050565b600082821b905092915050565b600060088302611e087fffffffffffffffffffffffffffffffffffffffffffffffffffffffffffffffff82611dcb565b611e128683611dcb565b95508019841693508086168417925050509392505050565b6000611e45611e40611e3b84611132565b611884565b611132565b9050919050565b6000819050919050565b611e5f83611e2a565b611e73611e6b82611e4c565b848454611dd8565b825550505050565b600090565b611e88611e7b565b611e93818484611e56565b505050565b5b81811015611eb757611eac600082611e80565b600181019050611e99565b5050565b601f821115611efc57611ecd81611da6565b611ed684611dbb565b81016020851015611ee5578190505b611ef9611ef185611dbb565b830182611e98565b50505b505050565b600082821c905092915050565b6000611f1f60001984600802611f01565b1980831691505092915050565b6000611f388383611f0e565b9150826002028217905092915050565b611f51826111e5565b67ffffffffffffffff811115611f6a57611f69611329565b5b611f748254611b60565b611f7f828285611ebb565b600060209050601f831160018114611fb25760008415611fa0578287015190505b611faa8582611f2c565b865550612012565b601f198416611fc086611da6565b60005b82811015611fe857848901518255600182019150602085019450602081019050611fc3565b868310156120055784890151612001601f891682611f0e565b8355505b6001600288020188555050505b505050505050565b600081519050919050565b600082825260208201905092915050565b6000819050602082019050919050565b61204f816111c4565b82525050565b60006120618383612046565b60208301905092915050565b6000602082019050919050565b60006120858261201a565b61208f8185612025565b935061209a83612036565b8060005b838110156120cb5781516120b28882612055565b97506120bd8361206d565b92505060018101905061209e565b5085935050505092915050565b600081519050919050565b600082825260208201905092915050565b6000819050602082019050919050565b61210d81611132565b82525050565b600061211f8383612104565b60208301905092915050565b6000602082019050919050565b6000612143826120d8565b61214d81856120e3565b9350612158836120f4565b8060005b838110156121895781516121708882612113565b975061217b8361212b565b92505060018101905061215c565b5085935050505092915050565b600081519050919050565b600082825260208201905092915050565b6000819050602082019050919050565b600081519050919050565b600082825260208201905092915050565b60006121e9826121c2565b6121f381856121cd565b9350612203818560208601611201565b61220c8161122b565b840191505092915050565b600061222383836121de565b905092915050565b6000602082019050919050565b600061224382612196565b61224d81856121a1565b93508360208202850161225f856121b2565b8060005b8581101561229b578484038952815161227c8582612217565b94506122878361222b565b925060208a01995050600181019050612263565b50829750879550505050505092915050565b6000610100820190506122c3600083018b611195565b6122d0602083018a6111d6565b81810360408301526122e2818961207a565b905081810360608301526122f68188612138565b9050818103608083015261230a8187612238565b905061231960a0830186611195565b61232660c0830185611195565b81810360e0830152612338818461123c565b90509998505050505050505050565b7f496e76616c69642070726f706f73616c20696400000000000000000000000000600082015250565b600061237d6013836111f0565b915061238882612347565b602082019050919050565b600060208201905081810360008301526123ac81612370565b9050919050565b6000815190506123c28161113c565b92915050565b6000602082840312156123de576123dd611128565b5b60006123ec848285016123b3565b91505092915050565b600061240082611132565b915061240b83611132565b925082820261241981611132565b915082820484148315176124305761242f611cfb565b5b5092915050565b7f4e487b7100000000000000000000000000000000000000000000000000000000600052601260045260246000fd5b600061247182611132565b915061247c83611132565b92508261248c5761248b612437565b5b828204905092915050565b7f50726f706f73616c207374617465206d75737420626520616374697665000000600082015250565b60006124cd601d836111f0565b91506124d882612497565b602082019050919050565b600060208201905081810360008301526124fc816124c0565b9050919050565b7f566f74657220616c726561647920766f74656400000000000000000000000000600082015250565b60006125396013836111f0565b915061254482612503565b602082019050919050565b600060208201905081810360008301526125688161252c565b9050919050565b7f566f74657220686173206e6f2064616f20746f6b656e73000000000000000000600082015250565b60006125a56017836111f0565b91506125b08261256f565b602082019050919050565b600060208201905081810360008301526125d481612598565b9050919050565b60006080820190506125f060008301876111d6565b6125fd6020830186611195565b61260a6040830185611281565b6126176060830184611195565b95945050505050565b7f4f6e6c79207175657565642070726f706f73616c732063616e2062652065786560008201527f6375746564000000000000000000000000000000000000000000000000000000602082015250565b600061267c6025836111f0565b915061268782612620565b604082019050919050565b600060208201905081810360008301526126ab8161266f565b9050919050565b7f4e487b7100000000000000000000000000000000000000000000000000000000600052603260045260246000fd5b600081905092915050565b60008190508160005260206000209050919050565b6000815461270e81611b60565b61271881866126e1565b9450600182166000811461273357600181146127485761277b565b60ff198316865281151582028601935061277b565b612751856126ec565b60005b8381101561277357815481890152600182019150602081019050612754565b838801955050505b50505092915050565b60006127908284612701565b915081905092915050565b601f8211156127dc576127ad816126ec565b6127b684611dbb565b810160208510156127c5578190505b6127d96127d185611dbb565b830182611e98565b50505b505050565b6127ea826121c2565b67ffffffffffffffff81111561280357612802611329565b5b61280d8254611b60565b61281882828561279b565b600060209050601f83116001811461284b5760008415612839578287015190505b6128438582611f2c565b8655506128ab565b601f198416612859866126ec565b60005b828110156128815784890151825560018201915060208501945060208101905061285c565b8683101561289e578489015161289a601f891682611f0e565b8355505b6001600288020188555050505b50505050505056fea264697066735822122010c1da300afb144c0d21bb31304e93542ed4d37ac3f1bb6bc6b1d362e861d76264736f6c63430008110033",
  "linkReferences": {},
  "deployedLinkReferences": {}
}