{
  "_format": "hh-sol-artifact-1",
  "contractName": "DAOToken",
  "sourceName": "contracts/DAOToken.sol",
  "abi": [
    {
      "inputs": [
        {
          "internalType": "address",
          "name": "account",
          "type": "address"
        }
      ],
      "stateMutability": "nonpayable",
      "type": "constructor"
    },
    {
      "anonymous": false,
      "inputs": [
        {
          "indexed": true,
          "internalType": "address",
          "name": "owner",
          "type": "address"
        },
        {
          "indexed": true,
          "internalType": "address",
          "name": "spender",
          "type": "address"
        },
        {
          "indexed": false,
          "internalType": "uint256",
          "name": "value",
          "type": "uint256"
        }
      ],
      "name": "Approval",
      "type": "event"
    },
    {
      "anonymous": false,
      "inputs": [
        {
          "indexed": true,
          "internalType": "address",
          "name": "from",
          "type": "address"
        },
        {
          "indexed": true,
          "internalType": "address",
          "name": "to",
          "type": "address"
        },
        {
          "indexed": false,
          "internalType": "uint256",
          "name": "value",
          "type": "uint256"
        }
      ],
      "name": "Transfer",
      "type": "event"
    },
    {
      "inputs": [
        {
          "internalType": "address",
          "name": "owner",
          "type": "address"
        },
        {
          "internalType": "address",
          "name": "spender",
          "type": "address"
        }
      ],
      "name": "allowance",
      "outputs": [
        {
          "internalType": "uint256",
          "name": "",
          "type": "uint256"
        }
      ],
      "stateMutability": "view",
      "type": "function"
    },
    {
      "inputs": [
        {
          "internalType": "address",
          "name": "spender",
          "type": "address"
        },
        {
          "internalType": "uint256",
          "name": "amount",
          "type": "uint256"
        }
      ],
      "name": "approve",
      "outputs": [
        {
          "internalType": "bool",
          "name": "",
          "type": "bool"
        }
      ],
      "stateMutability": "nonpayable",
      "type": "function"
    },
    {
      "inputs": [
        {
          "internalType": "address",
          "name": "account",
          "type": "address"
        }
      ],
      "name": "balanceOf",
      "outputs": [
        {
          "internalType": "uint256",
          "name": "",
          "type": "uint256"
        }
      ],
      "stateMutability": "view",
      "type": "function"
    },
    {
      "inputs": [],
      "name": "decimals",
      "outputs": [
        {
          "internalType": "uint8",
          "name": "",
          "type": "uint8"
        }
      ],
      "stateMutability": "view",
      "type": "function"
    },
    {
      "inputs": [
        {
          "internalType": "address",
          "name": "spender",
          "type": "address"
        },
        {
          "internalType": "uint256",
          "name": "subtractedValue",
          "type": "uint256"
        }
      ],
      "name": "decreaseAllowance",
      "outputs": [
        {
          "internalType": "bool",
          "name": "",
          "type": "bool"
        }
      ],
      "stateMutability": "nonpayable",
      "type": "function"
    },
    {
      "inputs": [
        {
          "internalType": "address",
          "name": "account",
          "type": "address"
        }
      ],
      "name": "getCurrentVotes",
      "outputs": [
        {
          "internalType": "uint256",
          "name": "votes",
          "type": "uint256"
        }
      ],
      "stateMutability": "view",
      "type": "function"
    },
    {
      "inputs": [
        {
          "internalType": "address",
          "name": "spender",
          "type": "address"
        },
        {
          "internalType": "uint256",
          "name": "addedValue",
          "type": "uint256"
        }
      ],
      "name": "increaseAllowance",
      "outputs": [
        {
          "internalType": "bool",
          "name": "",
          "type": "bool"
        }
      ],
      "stateMutability": "nonpayable",
      "type": "function"
    },
    {
      "inputs": [],
      "name": "name",
      "outputs": [
        {
          "internalType": "string",
          "name": "",
          "type": "string"
        }
      ],
      "stateMutability": "view",
      "type": "function"
    },
    {
      "inputs": [],
      "name": "symbol",
      "outputs": [
        {
          "internalType": "string",
          "name": "",
          "type": "string"
        }
      ],
      "stateMutability": "view",
      "type": "function"
    },
    {
      "inputs": [],
      "name": "totalSupply",
      "outputs": [
        {
          "internalType": "uint256",
          "name": "",
          "type": "uint256"
        }
      ],
      "stateMutability": "view",
      "type": "function"
    },
    {
      "inputs": [
        {
          "internalType": "address",
          "name": "to",
          "type": "address"
        },
        {
          "internalType": "uint256",
          "name": "amount",
          "type": "uint256"
        }
      ],
      "name": "transfer",
      "outputs": [
        {
          "internalType": "bool",
          "name": "",
          "type": "bool"
        }
      ],
      "stateMutability": "nonpayable",
      "type": "function"
    },
    {
      "inputs": [
        {
          "internalType": "address",
          "name": "from",
          "type": "address"
        },
        {
          "internalType": "address",
          "name": "to",
          "type": "address"
        },
        {
          "internalType": "uint256",
          "name": "amount",
          "type": "uint256"
        }
      ],
      "name": "transferFrom",
      "outputs": [
        {
          "internalType": "bool",
          "name": "",
          "type": "bool"
        }
      ],
      "stateMutability": "nonpayable",
      "type": "function"
    }
  ],
  "bytecode": "0x60806040523480156200001157600080fd5b50604051620019fe380380620019fe8339818101604052810190620000379190620002c4565b6040518060400160405280600881526020017f44414f546f6b656e0000000000000000000000000000000000000000000000008152506040518060400160405280600381526020017f44414f00000000000000000000000000000000000000000000000000000000008152508160039081620000b4919062000570565b508060049081620000c6919062000570565b505050620000dc816064620000e360201b60201c565b5062000772565b600073ffffffffffffffffffffffffffffffffffffffff168273ffffffffffffffffffffffffffffffffffffffff160362000155576040517f08c379a00000000000000000000000000000000000000000000000000000000081526004016200014c90620006b8565b60405180910390fd5b62000169600083836200025060201b60201c565b80600260008282546200017d919062000709565b92505081905550806000808473ffffffffffffffffffffffffffffffffffffffff1673ffffffffffffffffffffffffffffffffffffffff168152602001908152602001600020600082825401925050819055508173ffffffffffffffffffffffffffffffffffffffff16600073ffffffffffffffffffffffffffffffffffffffff167fddf252ad1be2c89b69c2b068fc378daa952ba7f163c4a11628f55a4df523b3ef8360405162000230919062000755565b60405180910390a36200024c600083836200025560201b60201c565b5050565b505050565b505050565b600080fd5b600073ffffffffffffffffffffffffffffffffffffffff82169050919050565b60006200028c826200025f565b9050919050565b6200029e816200027f565b8114620002aa57600080fd5b50565b600081519050620002be8162000293565b92915050565b600060208284031215620002dd57620002dc6200025a565b5b6000620002ed84828501620002ad565b91505092915050565b600081519050919050565b7f4e487b7100000000000000000000000000000000000000000000000000000000600052604160045260246000fd5b7f4e487b7100000000000000000000000000000000000000000000000000000000600052602260045260246000fd5b600060028204905060018216806200037857607f821691505b6020821081036200038e576200038d62000330565b5b50919050565b60008190508160005260206000209050919050565b60006020601f8301049050919050565b600082821b905092915050565b600060088302620003f87fffffffffffffffffffffffffffffffffffffffffffffffffffffffffffffffff82620003b9565b620004048683620003b9565b95508019841693508086168417925050509392505050565b6000819050919050565b6000819050919050565b6000620004516200044b62000445846200041c565b62000426565b6200041c565b9050919050565b6000819050919050565b6200046d8362000430565b620004856200047c8262000458565b848454620003c6565b825550505050565b600090565b6200049c6200048d565b620004a981848462000462565b505050565b5b81811015620004d157620004c560008262000492565b600181019050620004af565b5050565b601f8211156200052057620004ea8162000394565b620004f584620003a9565b8101602085101562000505578190505b6200051d6200051485620003a9565b830182620004ae565b50505b505050565b600082821c905092915050565b6000620005456000198460080262000525565b1980831691505092915050565b600062000560838362000532565b9150826002028217905092915050565b6200057b82620002f6565b67ffffffffffffffff81111562000597576200059662000301565b5b620005a382546200035f565b620005b0828285620004d5565b600060209050601f831160018114620005e85760008415620005d3578287015190505b620005df858262000552565b8655506200064f565b601f198416620005f88662000394565b60005b828110156200062257848901518255600182019150602085019450602081019050620005fb565b868310156200064257848901516200063e601f89168262000532565b8355505b6001600288020188555050505b505050505050565b600082825260208201905092915050565b7f45524332303a206d696e7420746f20746865207a65726f206164647265737300600082015250565b6000620006a0601f8362000657565b9150620006ad8262000668565b602082019050919050565b60006020820190508181036000830152620006d38162000691565b9050919050565b7f4e487b7100000000000000000000000000000000000000000000000000000000600052601160045260246000fd5b600062000716826200041c565b915062000723836200041c565b92508282019050808211156200073e576200073d620006da565b5b92915050565b6200074f816200041c565b82525050565b60006020820190506200076c600083018462000744565b92915050565b61127c80620007826000396000f3fe608060405234801561001057600080fd5b50600436106100b45760003560e01c806370a082311161007157806370a08231146101a357806395d89b41146101d3578063a457c2d7146101f1578063a9059cbb14610221578063b4b5ea5714610251578063dd62ed3e14610281576100b4565b806306fdde03146100b9578063095ea7b3146100d757806318160ddd1461010757806323b872dd14610125578063313ce567146101555780633950935114610173575b600080fd5b6100c16102b1565b6040516100ce9190610b59565b60405180910390f35b6100f160048036038101906100ec9190610c14565b610343565b6040516100fe9190610c6f565b60405180910390f35b61010f610366565b60405161011c9190610c99565b60405180910390f35b61013f600480360381019061013a9190610cb4565b610370565b60405161014c9190610c6f565b60405180910390f35b61015d61039f565b60405161016a9190610d23565b60405180910390f35b61018d60048036038101906101889190610c14565b6103a8565b60405161019a9190610c6f565b60405180910390f35b6101bd60048036038101906101b89190610d3e565b6103df565b6040516101ca9190610c99565b60405180910390f35b6101db610427565b6040516101e89190610b59565b60405180910390f35b61020b60048036038101906102069190610c14565b6104b9565b6040516102189190610c6f565b60405180910390f35b61023b60048036038101906102369190610c14565b610530565b6040516102489190610c6f565b60405180910390f35b61026b60048036038101906102669190610d3e565b610553565b6040516102789190610c99565b60405180910390f35b61029b60048036038101906102969190610d6b565b610565565b6040516102a89190610c99565b60405180910390f35b6060600380546102c090610dda565b80601f01602080910402602001604051908101604052809291908181526020018280546102ec90610dda565b80156103395780601f1061030e57610100808354040283529160200191610339565b820191906000526020600020905b81548152906001019060200180831161031c57829003601f168201915b5050505050905090565b60008061034e6105ec565b905061035b8185856105f4565b600191505092915050565b6000600254905090565b60008061037b6105ec565b90506103888582856107bd565b610393858585610849565b60019150509392505050565b60006012905090565b6000806103b36105ec565b90506103d48185856103c58589610565565b6103cf9190610e3a565b6105f4565b600191505092915050565b60008060008373ffffffffffffffffffffffffffffffffffffffff1673ffffffffffffffffffffffffffffffffffffffff168152602001908152602001600020549050919050565b60606004805461043690610dda565b80601f016020809104026020016040519081016040528092919081815260200182805461046290610dda565b80156104af5780601f10610484576101008083540402835291602001916104af565b820191906000526020600020905b81548152906001019060200180831161049257829003601f168201915b5050505050905090565b6000806104c46105ec565b905060006104d28286610565565b905083811015610517576040517f08c379a000000000000000000000000000000000000000000000000000000000815260040161050e90610ee0565b60405180910390fd5b61052482868684036105f4565b60019250505092915050565b60008061053b6105ec565b9050610548818585610849565b600191505092915050565b600061055e826103df565b9050919050565b6000600160008473ffffffffffffffffffffffffffffffffffffffff1673ffffffffffffffffffffffffffffffffffffffff16815260200190815260200160002060008373ffffffffffffffffffffffffffffffffffffffff1673ffffffffffffffffffffffffffffffffffffffff16815260200190815260200160002054905092915050565b600033905090565b600073ffffffffffffffffffffffffffffffffffffffff168373ffffffffffffffffffffffffffffffffffffffff1603610663576040517f08c379a000000000000000000000000000000000000000000000000000000000815260040161065a90610f72565b60405180910390fd5b600073ffffffffffffffffffffffffffffffffffffffff168273ffffffffffffffffffffffffffffffffffffffff16036106d2576040517f08c379a00000000000000000000000000000000000000000000000000000000081526004016106c990611004565b60405180910390fd5b80600160008573ffffffffffffffffffffffffffffffffffffffff1673ffffffffffffffffffffffffffffffffffffffff16815260200190815260200160002060008473ffffffffffffffffffffffffffffffffffffffff1673ffffffffffffffffffffffffffffffffffffffff168152602001908152602001600020819055508173ffffffffffffffffffffffffffffffffffffffff168373ffffffffffffffffffffffffffffffffffffffff167f8c5be1e5ebec7d5bd14f71427d1e84f3dd0314c0f7b2291e5b200ac8c7c3b925836040516107b09190610c99565b60405180910390a3505050565b60006107c98484610565565b90507fffffffffffffffffffffffffffffffffffffffffffffffffffffffffffffffff81146108435781811015610835576040517f08c379a000000000000000000000000000000000000000000000000000000000815260040161082c90611070565b60405180910390fd5b61084284848484036105f4565b5b50505050565b600073ffffffffffffffffffffffffffffffffffffffff168373ffffffffffffffffffffffffffffffffffffffff16036108b8576040517f08c379a00000000000000000000000000000000000000000000000000000000081526004016108af90611102565b60405180910390fd5b600073ffffffffffffffffffffffffffffffffffffffff168273ffffffffffffffffffffffffffffffffffffffff1603610927576040517f08c379a000000000000000000000000000000000000000000000000000000000815260040161091e90611194565b60405180910390fd5b610932838383610abf565b60008060008573ffffffffffffffffffffffffffffffffffffffff1673ffffffffffffffffffffffffffffffffffffffff168152602001908152602001600020549050818110156109b8576040517f08c379a00000000000000000000000000000000000000000000000000000000081526004016109af90611226565b60405180910390fd5b8181036000808673ffffffffffffffffffffffffffffffffffffffff1673ffffffffffffffffffffffffffffffffffffffff16815260200190815260200160002081905550816000808573ffffffffffffffffffffffffffffffffffffffff1673ffffffffffffffffffffffffffffffffffffffff168152602001908152602001600020600082825401925050819055508273ffffffffffffffffffffffffffffffffffffffff168473ffffffffffffffffffffffffffffffffffffffff167fddf252ad1be2c89b69c2b068fc378daa952ba7f163c4a11628f55a4df523b3ef84604051610aa69190610c99565b60405180910390a3610ab9848484610ac4565b50505050565b505050565b505050565b600081519050919050565b600082825260208201905092915050565b60005b83811015610b03578082015181840152602081019050610ae8565b60008484015250505050565b6000601f19601f8301169050919050565b6000610b2b82610ac9565b610b358185610ad4565b9350610b45818560208601610ae5565b610b4e81610b0f565b840191505092915050565b60006020820190508181036000830152610b738184610b20565b905092915050565b600080fd5b600073ffffffffffffffffffffffffffffffffffffffff82169050919050565b6000610bab82610b80565b9050919050565b610bbb81610ba0565b8114610bc657600080fd5b50565b600081359050610bd881610bb2565b92915050565b6000819050919050565b610bf181610bde565b8114610bfc57600080fd5b50565b600081359050610c0e81610be8565b92915050565b60008060408385031215610c2b57610c2a610b7b565b5b6000610c3985828601610bc9565b9250506020610c4a85828601610bff565b9150509250929050565b60008115159050919050565b610c6981610c54565b82525050565b6000602082019050610c846000830184610c60565b92915050565b610c9381610bde565b82525050565b6000602082019050610cae6000830184610c8a565b92915050565b600080600060608486031215610ccd57610ccc610b7b565b5b6000610cdb86828701610bc9565b9350506020610cec86828701610bc9565b9250506040610cfd86828701610bff565b9150509250925092565b600060ff82169050919050565b610d1d81610d07565b82525050565b6000602082019050610d386000830184610d14565b92915050565b600060208284031215610d5457610d53610b7b565b5b6000610d6284828501610bc9565b91505092915050565b60008060408385031215610d8257610d81610b7b565b5b6000610d9085828601610bc9565b9250506020610da185828601610bc9565b9150509250929050565b7f4e487b7100000000000000000000000000000000000000000000000000000000600052602260045260246000fd5b60006002820490506001821680610df257607f821691505b602082108103610e0557610e04610dab565b5b50919050565b7f4e487b7100000000000000000000000000000000000000000000000000000000600052601160045260246000fd5b6000610e4582610bde565b9150610e5083610bde565b9250828201905080821115610e6857610e67610e0b565b5b92915050565b7f45524332303a2064656372656173656420616c6c6f77616e63652062656c6f7760008201527f207a65726f000000000000000000000000000000000000000000000000000000602082015250565b6000610eca602583610ad4565b9150610ed582610e6e565b604082019050919050565b60006020820190508181036000830152610ef981610ebd565b9050919050565b7f45524332303a20617070726f76652066726f6d20746865207a65726f2061646460008201527f7265737300000000000000000000000000000000000000000000000000000000602082015250565b6000610f5c602483610ad4565b9150610f6782610f00565b604082019050919050565b60006020820190508181036000830152610f8b81610f4f565b9050919050565b7f45524332303a20617070726f766520746f20746865207a65726f20616464726560008201527f7373000000000000000000000000000000000000000000000000000000000000602082015250565b6000610fee602283610ad4565b9150610ff982610f92565b604082019050919050565b6000602082019050818103600083015261101d81610fe1565b9050919050565b7f45524332303a20696e73756666696369656e7420616c6c6f77616e6365000000600082015250565b600061105a601d83610ad4565b915061106582611024565b602082019050919050565b600060208201905081810360008301526110898161104d565b9050919050565b7f45524332303a207472616e736665722066726f6d20746865207a65726f20616460008201527f6472657373000000000000000000000000000000000000000000000000000000602082015250565b60006110ec602583610ad4565b91506110f782611090565b604082019050919050565b6000602082019050818103600083015261111b816110df565b9050919050565b7f45524332303a207472616e7366657220746f20746865207a65726f206164647260008201527f6573730000000000000000000000000000000000000000000000000000000000602082015250565b600061117e602383610ad4565b915061118982611122565b604082019050919050565b600060208201905081810360008301526111ad81611171565b9050919050565b7f45524332303a207472616e7366657220616d6f756e742065786365656473206260008201527f616c616e63650000000000000000000000000000000000000000000000000000602082015250565b6000611210602683610ad4565b915061121b826111b4565b604082019050919050565b6000602082019050818103600083015261123f81611203565b905091905056fea264697066735822122027b2a3aace22c0dd9009cf2cb0c0fd5b7f0cd2d3ca8c5b599afc39043f9aabcf64736f6c63430008110033",
  "linkReferences": {},
  "deployedLinkReferences": {}
}